{
  "_format": "hh-sol-artifact-1",
  "contractName": "Report",
  "sourceName": "contracts/Report.sol",
  "abi": [
    {
      "inputs": [],
      "name": "LoginAsAdmin",
      "outputs": [
        {
          "internalType": "bool",
          "name": "",
          "type": "bool"
        }
      ],
      "stateMutability": "view",
      "type": "function"
    },
    {
      "inputs": [
        {
          "internalType": "string",
          "name": "_crops",
          "type": "string"
        },
        {
          "internalType": "string",
          "name": "_state",
          "type": "string"
        },
        {
          "internalType": "uint256",
          "name": "_price",
          "type": "uint256"
        },
        {
          "internalType": "uint256",
          "name": "_quantity",
          "type": "uint256"
        },
        {
          "internalType": "string",
          "name": "_terms",
          "type": "string"
        },
        {
          "internalType": "uint256",
          "name": "_payment",
          "type": "uint256"
        }
      ],
      "name": "ReportCrime",
      "outputs": [],
      "stateMutability": "nonpayable",
      "type": "function"
    },
    {
      "inputs": [],
      "name": "viewReports",
      "outputs": [
        {
          "components": [
            {
              "internalType": "uint256",
              "name": "timestamp",
              "type": "uint256"
            },
            {
              "internalType": "string",
              "name": "crops",
              "type": "string"
            },
            {
              "internalType": "string",
              "name": "state",
              "type": "string"
            },
            {
              "internalType": "uint256",
              "name": "price",
              "type": "uint256"
            },
            {
              "internalType": "uint256",
              "name": "quantity",
              "type": "uint256"
            },
            {
              "internalType": "string",
              "name": "terms",
              "type": "string"
            },
            {
              "internalType": "uint256",
              "name": "payment",
              "type": "uint256"
            }
          ],
          "internalType": "struct Report.report[]",
          "name": "",
          "type": "tuple[]"
        }
      ],
      "stateMutability": "view",
      "type": "function"
    }
  ],
  "bytecode": "6080604052604051806020016040528073cab9b57a22a721f45af5f002a40fb6818c20346973ffffffffffffffffffffffffffffffffffffffff1673ffffffffffffffffffffffffffffffffffffffff168152506001906001610063929190610076565b5034801561007057600080fd5b50610110565b82600281019282156100e2579160200282015b828111156100e15782518260006101000a81548173ffffffffffffffffffffffffffffffffffffffff021916908373ffffffffffffffffffffffffffffffffffffffff16021790555091602001919060010190610089565b5b5090506100ef91906100f3565b5090565b5b8082111561010c5760008160009055506001016100f4565b5090565b610bfc8061011f6000396000f3fe608060405234801561001057600080fd5b50600436106100415760003560e01c806312beb00f14610046578063446e35ba146100645780638392c50f14610080575b600080fd5b61004e61009e565b60405161005b9190610793565b60405180910390f35b61007e6004803603810190610079919061092a565b6102db565b005b610088610432565b6040516100959190610a26565b60405180910390f35b60606000805480602002602001604051908101604052809291908181526020016000905b828210156102d257838290600052602060002090600702016040518060e0016040529081600082015481526020016001820180546100ff90610a70565b80601f016020809104026020016040519081016040528092919081815260200182805461012b90610a70565b80156101785780601f1061014d57610100808354040283529160200191610178565b820191906000526020600020905b81548152906001019060200180831161015b57829003601f168201915b5050505050815260200160028201805461019190610a70565b80601f01602080910402602001604051908101604052809291908181526020018280546101bd90610a70565b801561020a5780601f106101df5761010080835404028352916020019161020a565b820191906000526020600020905b8154815290600101906020018083116101ed57829003601f168201915b50505050508152602001600382015481526020016004820154815260200160058201805461023790610a70565b80601f016020809104026020016040519081016040528092919081815260200182805461026390610a70565b80156102b05780601f10610285576101008083540402835291602001916102b0565b820191906000526020600020905b81548152906001019060200180831161029357829003601f168201915b50505050508152602001600682015481525050815260200190600101906100c2565b50505050905090565b600073ffffffffffffffffffffffffffffffffffffffff163373ffffffffffffffffffffffffffffffffffffffff16141561034b576040517f08c379a000000000000000000000000000000000000000000000000000000000815260040161034290610aff565b60405180910390fd5b60006040518060e001604052804281526020018881526020018781526020018681526020018581526020018481526020018381525090806001815401808255809150506001900390600052602060002090600702016000909190919091506000820151816000015560208201518160010190805190602001906103cf9291906104d2565b5060408201518160020190805190602001906103ec9291906104d2565b50606082015181600301556080820151816004015560a082015181600501908051906020019061041d9291906104d2565b5060c082015181600601555050505050505050565b600080600090505b60028110156104c9573373ffffffffffffffffffffffffffffffffffffffff166001826002811061046e5761046d610b1f565b5b0160009054906101000a900473ffffffffffffffffffffffffffffffffffffffff1673ffffffffffffffffffffffffffffffffffffffff1614156104b65760019150506104cf565b80806104c190610b7d565b91505061043a565b50600090505b90565b8280546104de90610a70565b90600052602060002090601f0160209004810192826105005760008555610547565b82601f1061051957805160ff1916838001178555610547565b82800160010185558215610547579182015b8281111561054657825182559160200191906001019061052b565b5b5090506105549190610558565b5090565b5b80821115610571576000816000905550600101610559565b5090565b600081519050919050565b600082825260208201905092915050565b6000819050602082019050919050565b6000819050919050565b6105b4816105a1565b82525050565b600081519050919050565b600082825260208201905092915050565b60005b838110156105f45780820151818401526020810190506105d9565b83811115610603576000848401525b50505050565b6000601f19601f8301169050919050565b6000610625826105ba565b61062f81856105c5565b935061063f8185602086016105d6565b61064881610609565b840191505092915050565b600060e08301600083015161066b60008601826105ab565b5060208301518482036020860152610683828261061a565b9150506040830151848203604086015261069d828261061a565b91505060608301516106b260608601826105ab565b5060808301516106c560808601826105ab565b5060a083015184820360a08601526106dd828261061a565b91505060c08301516106f260c08601826105ab565b508091505092915050565b60006107098383610653565b905092915050565b6000602082019050919050565b600061072982610575565b6107338185610580565b93508360208202850161074585610591565b8060005b85811015610781578484038952815161076285826106fd565b945061076d83610711565b925060208a01995050600181019050610749565b50829750879550505050505092915050565b600060208201905081810360008301526107ad818461071e565b905092915050565b6000604051905090565b600080fd5b600080fd5b600080fd5b600080fd5b7f4e487b7100000000000000000000000000000000000000000000000000000000600052604160045260246000fd5b61080b82610609565b810181811067ffffffffffffffff8211171561082a576108296107d3565b5b80604052505050565b600061083d6107b5565b90506108498282610802565b919050565b600067ffffffffffffffff821115610869576108686107d3565b5b61087282610609565b9050602081019050919050565b82818337600083830152505050565b60006108a161089c8461084e565b610833565b9050828152602081018484840111156108bd576108bc6107ce565b5b6108c884828561087f565b509392505050565b600082601f8301126108e5576108e46107c9565b5b81356108f584826020860161088e565b91505092915050565b610907816105a1565b811461091257600080fd5b50565b600081359050610924816108fe565b92915050565b60008060008060008060c08789031215610947576109466107bf565b5b600087013567ffffffffffffffff811115610965576109646107c4565b5b61097189828a016108d0565b965050602087013567ffffffffffffffff811115610992576109916107c4565b5b61099e89828a016108d0565b95505060406109af89828a01610915565b94505060606109c089828a01610915565b935050608087013567ffffffffffffffff8111156109e1576109e06107c4565b5b6109ed89828a016108d0565b92505060a06109fe89828a01610915565b9150509295509295509295565b60008115159050919050565b610a2081610a0b565b82525050565b6000602082019050610a3b6000830184610a17565b92915050565b7f4e487b7100000000000000000000000000000000000000000000000000000000600052602260045260246000fd5b60006002820490506001821680610a8857607f821691505b60208210811415610a9c57610a9b610a41565b5b50919050565b600082825260208201905092915050565b7f496e76616c696420416464726573730000000000000000000000000000000000600082015250565b6000610ae9600f83610aa2565b9150610af482610ab3565b602082019050919050565b60006020820190508181036000830152610b1881610adc565b9050919050565b7f4e487b7100000000000000000000000000000000000000000000000000000000600052603260045260246000fd5b7f4e487b7100000000000000000000000000000000000000000000000000000000600052601160045260246000fd5b6000610b88826105a1565b91507fffffffffffffffffffffffffffffffffffffffffffffffffffffffffffffffff821415610bbb57610bba610b4e565b5b60018201905091905056fea2646970667358221220aaec58f702a969ee97fa52b2545c4f5d1269b4b882f3f9e2d778d392468927b764736f6c634300080c0033",
  "linkReferences": {},
  "deployedLinkReferences": {}
}